{
  "contractName": "Ride",
  "abi": [
    {
      "constant": true,
      "inputs": [],
      "name": "rideNo",
      "outputs": [
        {
          "name": "",
          "type": "uint256"
        }
      ],
      "payable": false,
      "stateMutability": "view",
      "type": "function",
      "signature": "0x3e4ac33d"
    },
    {
      "constant": true,
      "inputs": [
        {
          "name": "",
          "type": "uint256"
        }
      ],
      "name": "riders",
      "outputs": [
        {
          "name": "id",
          "type": "uint256"
        },
        {
          "name": "routeNo",
          "type": "uint256"
        },
        {
          "name": "name",
          "type": "string"
        }
      ],
      "payable": false,
      "stateMutability": "view",
      "type": "function",
      "signature": "0x3ec37e90"
    },
    {
      "constant": true,
      "inputs": [],
      "name": "riderNo",
      "outputs": [
        {
          "name": "",
          "type": "uint256"
        }
      ],
      "payable": false,
      "stateMutability": "view",
      "type": "function",
      "signature": "0x43b428d8"
    },
    {
      "constant": true,
      "inputs": [
        {
          "name": "",
          "type": "uint256"
        }
      ],
      "name": "rides",
      "outputs": [
        {
          "name": "id",
          "type": "uint256"
        },
        {
          "name": "riderID",
          "type": "uint256"
        },
        {
          "name": "driverID",
          "type": "uint256"
        },
        {
          "name": "routeID",
          "type": "uint256"
        }
      ],
      "payable": false,
      "stateMutability": "view",
      "type": "function",
      "signature": "0x5205f112"
    },
    {
      "constant": true,
      "inputs": [
        {
          "name": "",
          "type": "uint256"
        }
      ],
      "name": "routes",
      "outputs": [
        {
          "name": "routeNo",
          "type": "uint256"
        },
        {
          "name": "driverId",
          "type": "uint256"
        },
        {
          "name": "origin",
          "type": "string"
        },
        {
          "name": "destination",
          "type": "string"
        },
        {
          "name": "estimatedTimeDep",
          "type": "uint256"
        },
        {
          "name": "estimatedTimeArr",
          "type": "uint256"
        }
      ],
      "payable": false,
      "stateMutability": "view",
      "type": "function",
      "signature": "0x726f16d8"
    },
    {
      "constant": true,
      "inputs": [],
      "name": "DAPPname",
      "outputs": [
        {
          "name": "",
          "type": "string"
        }
      ],
      "payable": false,
      "stateMutability": "view",
      "type": "function",
      "signature": "0xc073ab6d"
    },
    {
      "constant": true,
      "inputs": [],
      "name": "routeNo",
      "outputs": [
        {
          "name": "",
          "type": "uint256"
        }
      ],
      "payable": false,
      "stateMutability": "view",
      "type": "function",
      "signature": "0xf5ae44f1"
    },
    {
      "constant": true,
      "inputs": [
        {
          "name": "",
          "type": "uint256"
        }
      ],
      "name": "drivers",
      "outputs": [
        {
          "name": "id",
          "type": "uint256"
        },
        {
          "name": "name",
          "type": "string"
        },
        {
          "name": "status",
          "type": "string"
        },
        {
          "name": "seatSize",
          "type": "uint256"
        },
        {
          "name": "routeNo",
          "type": "uint256"
        }
      ],
      "payable": false,
      "stateMutability": "view",
      "type": "function",
      "signature": "0xf79e5450"
    },
    {
      "constant": true,
      "inputs": [],
      "name": "driverNo",
      "outputs": [
        {
          "name": "",
          "type": "uint256"
        }
      ],
      "payable": false,
      "stateMutability": "view",
      "type": "function",
      "signature": "0xf912edc9"
    },
    {
      "inputs": [],
      "payable": false,
      "stateMutability": "nonpayable",
      "type": "constructor",
      "signature": "constructor"
    },
    {
      "anonymous": false,
      "inputs": [
        {
          "indexed": false,
          "name": "id",
          "type": "uint256"
        },
        {
          "indexed": false,
          "name": "name",
          "type": "string"
        },
        {
          "indexed": false,
          "name": "status",
          "type": "string"
        },
        {
          "indexed": false,
          "name": "seatSize",
          "type": "uint256"
        }
      ],
      "name": "DriverCreated",
      "type": "event",
      "signature": "0x8c6ff9c08944088e0317c8420f3e321612dd4981467344842de298ff35445b17"
    },
    {
      "anonymous": false,
      "inputs": [
        {
          "indexed": false,
          "name": "id",
          "type": "uint256"
        },
        {
          "indexed": false,
          "name": "name",
          "type": "string"
        }
      ],
      "name": "RiderCreated",
      "type": "event",
      "signature": "0x336e881008d7a8b3dfe5cbd138dc43e2b45b7757e79c356d2dbbff3eea6b5010"
    },
    {
      "anonymous": false,
      "inputs": [
        {
          "indexed": false,
          "name": "driverID",
          "type": "uint256"
        },
        {
          "indexed": false,
          "name": "routeNo",
          "type": "uint256"
        },
        {
          "indexed": false,
          "name": "origin",
          "type": "string"
        },
        {
          "indexed": false,
          "name": "destination",
          "type": "string"
        },
        {
          "indexed": false,
          "name": "estimatedTimeDep",
          "type": "uint256"
        },
        {
          "indexed": false,
          "name": "estimatedTimeArr",
          "type": "uint256"
        }
      ],
      "name": "RouteAdded",
      "type": "event",
      "signature": "0xb652f1ce66e29432af16bdcba7b86f38c0c31439fe6fc394cc1725653db25383"
    },
    {
      "anonymous": false,
      "inputs": [
        {
          "indexed": false,
          "name": "id",
          "type": "uint256"
        },
        {
          "indexed": false,
          "name": "riderID",
          "type": "uint256"
        },
        {
          "indexed": false,
          "name": "driverID",
          "type": "uint256"
        },
        {
          "indexed": false,
          "name": "routeID",
          "type": "uint256"
        }
      ],
      "name": "BookedRide",
      "type": "event",
      "signature": "0xc01f1d9243c79d663a8218f6ac0709e604a62de80d818f8a90bb7c121bf05447"
    },
    {
      "constant": false,
      "inputs": [
        {
          "name": "_name",
          "type": "string"
        },
        {
          "name": "_status",
          "type": "string"
        },
        {
          "name": "_seatSize",
          "type": "uint256"
        }
      ],
      "name": "driverLogin",
      "outputs": [],
      "payable": false,
      "stateMutability": "nonpayable",
      "type": "function",
      "signature": "0x942c9f1b"
    },
    {
      "constant": false,
      "inputs": [
        {
          "name": "_driverID",
          "type": "uint256"
        },
        {
          "name": "_origin",
          "type": "string"
        },
        {
          "name": "_destination",
          "type": "string"
        },
        {
          "name": "_etd",
          "type": "uint256"
        },
        {
          "name": "_eta",
          "type": "uint256"
        }
      ],
      "name": "addRoute",
      "outputs": [],
      "payable": false,
      "stateMutability": "nonpayable",
      "type": "function",
      "signature": "0x41059049"
    },
    {
      "constant": false,
      "inputs": [
        {
          "name": "_name",
          "type": "string"
        }
      ],
      "name": "riderLogin",
      "outputs": [],
      "payable": false,
      "stateMutability": "nonpayable",
      "type": "function",
      "signature": "0x2daf4e65"
    }
  ],
  "bytecode": "0x608060405260006001556000600255600060035560006004553480156200002557600080fd5b506040805190810160405280601181526020017f526964652053686172696e67204441505000000000000000000000000000000081525060009080519060200190620000739291906200007a565b5062000129565b828054600181600116156101000203166002900490600052602060002090601f016020900481019282601f10620000bd57805160ff1916838001178555620000ee565b82800160010185558215620000ee579182015b82811115620000ed578251825591602001919060010190620000d0565b5b509050620000fd919062000101565b5090565b6200012691905b808211156200012257600081600090555060010162000108565b5090565b90565b61136980620001396000396000f3fe6080604052600436106100ba576000357c0100000000000000000000000000000000000000000000000000000000900463ffffffff1680632daf4e65146100bf5780633e4ac33d146101875780633ec37e90146101b2578063410590491461027457806343b428d8146103f15780635205f1121461041c578063726f16d814610480578063942c9f1b146105bc578063c073ab6d14610725578063f5ae44f1146107b5578063f79e5450146107e0578063f912edc914610915575b600080fd5b3480156100cb57600080fd5b50610185600480360360208110156100e257600080fd5b81019080803590602001906401000000008111156100ff57600080fd5b82018360208201111561011157600080fd5b8035906020019184600183028401116401000000008311171561013357600080fd5b91908080601f016020809104026020016040519081016040528093929190818152602001838380828437600081840152601f19601f820116905080830192505050505050509192919290505050610940565b005b34801561019357600080fd5b5061019c610a63565b6040518082815260200191505060405180910390f35b3480156101be57600080fd5b506101eb600480360360208110156101d557600080fd5b8101908080359060200190929190505050610a69565b6040518084815260200183815260200180602001828103825283818151815260200191508051906020019080838360005b8381101561023757808201518184015260208101905061021c565b50505050905090810190601f1680156102645780820380516001836020036101000a031916815260200191505b5094505050505060405180910390f35b34801561028057600080fd5b506103ef600480360360a081101561029757600080fd5b8101908080359060200190929190803590602001906401000000008111156102be57600080fd5b8201836020820111156102d057600080fd5b803590602001918460018302840111640100000000831117156102f257600080fd5b91908080601f016020809104026020016040519081016040528093929190818152602001838380828437600081840152601f19601f8201169050808301925050505050505091929192908035906020019064010000000081111561035557600080fd5b82018360208201111561036757600080fd5b8035906020019184600183028401116401000000008311171561038957600080fd5b91908080601f016020809104026020016040519081016040528093929190818152602001838380828437600081840152601f19601f8201169050808301925050505050505091929192908035906020019092919080359060200190929190505050610b2b565b005b3480156103fd57600080fd5b50610406610d19565b6040518082815260200191505060405180910390f35b34801561042857600080fd5b506104556004803603602081101561043f57600080fd5b8101908080359060200190929190505050610d1f565b6040518085815260200184815260200183815260200182815260200194505050505060405180910390f35b34801561048c57600080fd5b506104b9600480360360208110156104a357600080fd5b8101908080359060200190929190505050610d4f565b604051808781526020018681526020018060200180602001858152602001848152602001838103835287818151815260200191508051906020019080838360005b838110156105155780820151818401526020810190506104fa565b50505050905090810190601f1680156105425780820380516001836020036101000a031916815260200191505b50838103825286818151815260200191508051906020019080838360005b8381101561057b578082015181840152602081019050610560565b50505050905090810190601f1680156105a85780820380516001836020036101000a031916815260200191505b509850505050505050505060405180910390f35b3480156105c857600080fd5b50610723600480360360608110156105df57600080fd5b81019080803590602001906401000000008111156105fc57600080fd5b82018360208201111561060e57600080fd5b8035906020019184600183028401116401000000008311171561063057600080fd5b91908080601f016020809104026020016040519081016040528093929190818152602001838380828437600081840152601f19601f8201169050808301925050505050505091929192908035906020019064010000000081111561069357600080fd5b8201836020820111156106a557600080fd5b803590602001918460018302840111640100000000831117156106c757600080fd5b91908080601f016020809104026020016040519081016040528093929190818152602001838380828437600081840152601f19601f82011690508083019250505050505050919291929080359060200190929190505050610ebb565b005b34801561073157600080fd5b5061073a611088565b6040518080602001828103825283818151815260200191508051906020019080838360005b8381101561077a57808201518184015260208101905061075f565b50505050905090810190601f1680156107a75780820380516001836020036101000a031916815260200191505b509250505060405180910390f35b3480156107c157600080fd5b506107ca611126565b6040518082815260200191505060405180910390f35b3480156107ec57600080fd5b506108196004803603602081101561080357600080fd5b810190808035906020019092919050505061112c565b604051808681526020018060200180602001858152602001848152602001838103835287818151815260200191508051906020019080838360005b8381101561086f578082015181840152602081019050610854565b50505050905090810190601f16801561089c5780820380516001836020036101000a031916815260200191505b50838103825286818151815260200191508051906020019080838360005b838110156108d55780820151818401526020810190506108ba565b50505050905090810190601f1680156109025780820380516001836020036101000a031916815260200191505b5097505050505050505060405180910390f35b34801561092157600080fd5b5061092a611292565b6040518082815260200191505060405180910390f35b60046000815480929190600101919050555060606040519081016040528060045481526020016000815260200182815250600760006004548152602001908152602001600020600082015181600001556020820151816001015560408201518160020190805190602001906109b6929190611298565b509050507f336e881008d7a8b3dfe5cbd138dc43e2b45b7757e79c356d2dbbff3eea6b5010600454826040518083815260200180602001828103825283818151815260200191508051906020019080838360005b83811015610a25578082015181840152602081019050610a0a565b50505050905090810190601f168015610a525780820380516001836020036101000a031916815260200191505b50935050505060405180910390a150565b60035481565b6007602052806000526040600020600091509050806000015490806001015490806002018054600181600116156101000203166002900480601f016020809104026020016040519081016040528092919081815260200182805460018160011615610100020316600290048015610b215780601f10610af657610100808354040283529160200191610b21565b820191906000526020600020905b815481529060010190602001808311610b0457829003601f168201915b5050505050905083565b60026000815480929190600101919050555060c06040519081016040528060025481526020018681526020018581526020018481526020018381526020018281525060066000600254815260200190815260200160002060008201518160000155602082015181600101556040820151816002019080519060200190610bb2929190611298565b506060820151816003019080519060200190610bcf929190611298565b506080820151816004015560a082015181600501559050507fb652f1ce66e29432af16bdcba7b86f38c0c31439fe6fc394cc1725653db253838560025486868686604051808781526020018681526020018060200180602001858152602001848152602001838103835287818151815260200191508051906020019080838360005b83811015610c6c578082015181840152602081019050610c51565b50505050905090810190601f168015610c995780820380516001836020036101000a031916815260200191505b50838103825286818151815260200191508051906020019080838360005b83811015610cd2578082015181840152602081019050610cb7565b50505050905090810190601f168015610cff5780820380516001836020036101000a031916815260200191505b509850505050505050505060405180910390a15050505050565b60045481565b60086020528060005260406000206000915090508060000154908060010154908060020154908060030154905084565b6006602052806000526040600020600091509050806000015490806001015490806002018054600181600116156101000203166002900480601f016020809104026020016040519081016040528092919081815260200182805460018160011615610100020316600290048015610e075780601f10610ddc57610100808354040283529160200191610e07565b820191906000526020600020905b815481529060010190602001808311610dea57829003601f168201915b505050505090806003018054600181600116156101000203166002900480601f016020809104026020016040519081016040528092919081815260200182805460018160011615610100020316600290048015610ea55780601f10610e7a57610100808354040283529160200191610ea5565b820191906000526020600020905b815481529060010190602001808311610e8857829003601f168201915b5050505050908060040154908060050154905086565b60016000815480929190600101919050555060a06040519081016040528060015481526020018481526020018381526020018281526020016000815250600560006001548152602001908152602001600020600082015181600001556020820151816001019080519060200190610f33929190611298565b506040820151816002019080519060200190610f50929190611298565b5060608201518160030155608082015181600401559050507f8c6ff9c08944088e0317c8420f3e321612dd4981467344842de298ff35445b17600154848484604051808581526020018060200180602001848152602001838103835286818151815260200191508051906020019080838360005b83811015610fdf578082015181840152602081019050610fc4565b50505050905090810190601f16801561100c5780820380516001836020036101000a031916815260200191505b50838103825285818151815260200191508051906020019080838360005b8381101561104557808201518184015260208101905061102a565b50505050905090810190601f1680156110725780820380516001836020036101000a031916815260200191505b50965050505050505060405180910390a1505050565b60008054600181600116156101000203166002900480601f01602080910402602001604051908101604052809291908181526020018280546001816001161561010002031660029004801561111e5780601f106110f35761010080835404028352916020019161111e565b820191906000526020600020905b81548152906001019060200180831161110157829003601f168201915b505050505081565b60025481565b6005602052806000526040600020600091509050806000015490806001018054600181600116156101000203166002900480601f0160208091040260200160405190810160405280929190818152602001828054600181600116156101000203166002900480156111de5780601f106111b3576101008083540402835291602001916111de565b820191906000526020600020905b8154815290600101906020018083116111c157829003601f168201915b505050505090806002018054600181600116156101000203166002900480601f01602080910402602001604051908101604052809291908181526020018280546001816001161561010002031660029004801561127c5780601f106112515761010080835404028352916020019161127c565b820191906000526020600020905b81548152906001019060200180831161125f57829003601f168201915b5050505050908060030154908060040154905085565b60015481565b828054600181600116156101000203166002900490600052602060002090601f016020900481019282601f106112d957805160ff1916838001178555611307565b82800160010185558215611307579182015b828111156113065782518255916020019190600101906112eb565b5b5090506113149190611318565b5090565b61133a91905b8082111561133657600081600090555060010161131e565b5090565b9056fea165627a7a72305820e8e7bad312c6261c3389202f77f0d81a55004e4b09519b5ac327e7b18ba7c0f70029",
  "source": "pragma solidity ^0.5.0;\r\n\r\ncontract Ride {\r\n    string public DAPPname;\r\n    uint256 public driverNo = 0;\r\n    uint256 public routeNo = 0;\r\n    uint256 public rideNo = 0;\r\n    uint256 public riderNo = 0;\r\n\r\n    mapping(uint256 => Driver) public drivers;\r\n    mapping(uint256 => Route) public routes;\r\n    mapping(uint256 => Rider) public riders;\r\n    mapping(uint256 => Rides) public rides;\r\n\r\n    struct Rides {\r\n        uint256 id;\r\n        uint256 riderID;\r\n        uint256 driverID;\r\n        uint256 routeID;\r\n    }\r\n\r\n    struct Rider {\r\n        uint256 id;\r\n        uint256 routeNo;\r\n        string name;\r\n    }\r\n\r\n    struct Driver {\r\n        uint256 id;\r\n        string name;\r\n        string status;\r\n        uint256 seatSize;\r\n        uint256 routeNo;\r\n        // mapping(uint256 => Route) routes;\r\n    }\r\n\r\n    struct Route {\r\n        uint256 routeNo;\r\n        uint256 driverId;\r\n        string origin;\r\n        string destination;\r\n        uint256 estimatedTimeDep;\r\n        uint256 estimatedTimeArr;\r\n    }\r\n\r\n    event DriverCreated(\r\n        uint256 id,\r\n        string name,\r\n        string status,\r\n        uint256 seatSize\r\n    );\r\n\r\n    event RiderCreated(uint256 id, string name);\r\n\r\n    event RouteAdded(\r\n        uint256 driverID,\r\n        uint256 routeNo,\r\n        string origin,\r\n        string destination,\r\n        uint256 estimatedTimeDep,\r\n        uint256 estimatedTimeArr\r\n    );\r\n\r\n    event BookedRide(\r\n        uint256 id,\r\n        uint256 riderID,\r\n        uint256 driverID,\r\n        uint256 routeID\r\n    );\r\n\r\n    constructor() public {\r\n        DAPPname = \"Ride Sharing DAPP\";\r\n    }\r\n\r\n    function driverLogin(\r\n        string memory _name,\r\n        string memory _status,\r\n        uint256 _seatSize\r\n    ) public {\r\n        //Increment Driver No.\r\n        driverNo++;\r\n        //Create a Driver\r\n        drivers[driverNo] = Driver({\r\n            id: driverNo,\r\n            name: _name,\r\n            status: _status,\r\n            seatSize: _seatSize,\r\n            routeNo: 0\r\n        });\r\n\r\n        //Trigger an event\r\n        emit DriverCreated(driverNo, _name, _status, _seatSize);\r\n    }\r\n\r\n    function addRoute(\r\n        uint256 _driverID,\r\n        string memory _origin,\r\n        string memory _destination,\r\n        uint256 _etd,\r\n        uint256 _eta\r\n    ) public {\r\n        //Increment Driver No.\r\n        routeNo++;\r\n        //Create a Driver\r\n        routes[routeNo] = Route({\r\n            routeNo: routeNo,\r\n            driverId: _driverID,\r\n            origin: _origin,\r\n            destination: _destination,\r\n            estimatedTimeDep: _etd,\r\n            estimatedTimeArr: _eta\r\n        });\r\n\r\n        //Trigger an event\r\n        emit RouteAdded(_driverID, routeNo, _origin, _destination, _etd, _eta);\r\n\r\n        // Still have to attempt on this code.\r\n        // Driver storage driver;\r\n        // Route storage route;\r\n        // uint256 routeNo;\r\n        // driver = drivers[_driverID];\r\n        // routeNo = driver.routeNo;\r\n        // route = Route(_driverID, _origin, _destination, _eta, _etd);\r\n        // driver.routes.push(route);\r\n        // driver.routeNo = driver.routeNo + 1;\r\n    }\r\n\r\n    function riderLogin(string memory _name) public {\r\n        //Increment Driver No.\r\n        riderNo++;\r\n        //Create a Driver\r\n        riders[riderNo] = Rider({id: riderNo, name: _name, routeNo: 0});\r\n\r\n        //Trigger an event\r\n        emit RiderCreated(riderNo, _name);\r\n    }\r\n}\r\n",
  "sourcePath": "C:/Users/hbhar/Documents/Blockchain/Ride_Sharing/src/contracts/Ride.sol",
  "compiler": {
    "name": "solc",
    "version": "0.5.0+commit.1d4f565a.Emscripten.clang"
  },
  "schemaVersion": "3.0.1",
  "updatedAt": "2022-06-06T09:21:11.450Z",
  "devdoc": {
    "methods": {}
  },
  "userdoc": {
    "methods": {}
  }
}