{
  "contractName": "Ride",
  "abi": [
    {
      "constant": true,
      "inputs": [],
      "name": "DAPPname",
      "outputs": [
        {
          "name": "",
          "type": "string"
        }
      ],
      "payable": false,
      "stateMutability": "view",
      "type": "function",
      "signature": "0xc073ab6d"
    },
    {
      "constant": true,
      "inputs": [
        {
          "name": "",
          "type": "uint256"
        }
      ],
      "name": "drivers",
      "outputs": [
        {
          "name": "id",
          "type": "uint256"
        },
        {
          "name": "name",
          "type": "string"
        },
        {
          "name": "status",
          "type": "string"
        },
        {
          "name": "seatSize",
          "type": "uint256"
        }
      ],
      "payable": false,
      "stateMutability": "view",
      "type": "function",
      "signature": "0xf79e5450"
    },
    {
      "constant": true,
      "inputs": [],
      "name": "driverNo",
      "outputs": [
        {
          "name": "",
          "type": "uint256"
        }
      ],
      "payable": false,
      "stateMutability": "view",
      "type": "function",
      "signature": "0xf912edc9"
    },
    {
      "inputs": [],
      "payable": false,
      "stateMutability": "nonpayable",
      "type": "constructor",
      "signature": "constructor"
    },
    {
      "anonymous": false,
      "inputs": [
        {
          "indexed": false,
          "name": "id",
          "type": "uint256"
        },
        {
          "indexed": false,
          "name": "name",
          "type": "string"
        },
        {
          "indexed": false,
          "name": "status",
          "type": "string"
        },
        {
          "indexed": false,
          "name": "seatSize",
          "type": "uint256"
        }
      ],
      "name": "DriverCreated",
      "type": "event",
      "signature": "0x8c6ff9c08944088e0317c8420f3e321612dd4981467344842de298ff35445b17"
    },
    {
      "constant": false,
      "inputs": [
        {
          "name": "_name",
          "type": "string"
        },
        {
          "name": "_status",
          "type": "string"
        },
        {
          "name": "_seatSize",
          "type": "uint256"
        }
      ],
      "name": "driverLogin",
      "outputs": [],
      "payable": false,
      "stateMutability": "nonpayable",
      "type": "function",
      "signature": "0x942c9f1b"
    }
  ],
  "bytecode": "0x6080604052600060015534801561001557600080fd5b506040805190810160405280601181526020017f526964652053686172696e67204441505000000000000000000000000000000081525060009080519060200190610061929190610067565b5061010c565b828054600181600116156101000203166002900490600052602060002090601f016020900481019282601f106100a857805160ff19168380011785556100d6565b828001600101855582156100d6579182015b828111156100d55782518255916020019190600101906100ba565b5b5090506100e391906100e7565b5090565b61010991905b808211156101055760008160009055506001016100ed565b5090565b90565b61084a8061011b6000396000f3fe608060405260043610610062576000357c0100000000000000000000000000000000000000000000000000000000900463ffffffff168063942c9f1b14610067578063c073ab6d146101d0578063f79e545014610260578063f912edc91461038e575b600080fd5b34801561007357600080fd5b506101ce6004803603606081101561008a57600080fd5b81019080803590602001906401000000008111156100a757600080fd5b8201836020820111156100b957600080fd5b803590602001918460018302840111640100000000831117156100db57600080fd5b91908080601f016020809104026020016040519081016040528093929190818152602001838380828437600081840152601f19601f8201169050808301925050505050505091929192908035906020019064010000000081111561013e57600080fd5b82018360208201111561015057600080fd5b8035906020019184600183028401116401000000008311171561017257600080fd5b91908080601f016020809104026020016040519081016040528093929190818152602001838380828437600081840152601f19601f820116905080830192505050505050509192919290803590602001909291905050506103b9565b005b3480156101dc57600080fd5b506101e5610575565b6040518080602001828103825283818151815260200191508051906020019080838360005b8381101561022557808201518184015260208101905061020a565b50505050905090810190601f1680156102525780820380516001836020036101000a031916815260200191505b509250505060405180910390f35b34801561026c57600080fd5b506102996004803603602081101561028357600080fd5b8101908080359060200190929190505050610613565b604051808581526020018060200180602001848152602001838103835286818151815260200191508051906020019080838360005b838110156102e95780820151818401526020810190506102ce565b50505050905090810190601f1680156103165780820380516001836020036101000a031916815260200191505b50838103825285818151815260200191508051906020019080838360005b8381101561034f578082015181840152602081019050610334565b50505050905090810190601f16801561037c5780820380516001836020036101000a031916815260200191505b50965050505050505060405180910390f35b34801561039a57600080fd5b506103a3610773565b6040518082815260200191505060405180910390f35b60016000815480929190600101919050555060806040519081016040528060015481526020018481526020018381526020018281525060026000600154815260200190815260200160002060008201518160000155602082015181600101908051906020019061042a929190610779565b506040820151816002019080519060200190610447929190610779565b50606082015181600301559050507f8c6ff9c08944088e0317c8420f3e321612dd4981467344842de298ff35445b17600154848484604051808581526020018060200180602001848152602001838103835286818151815260200191508051906020019080838360005b838110156104cc5780820151818401526020810190506104b1565b50505050905090810190601f1680156104f95780820380516001836020036101000a031916815260200191505b50838103825285818151815260200191508051906020019080838360005b83811015610532578082015181840152602081019050610517565b50505050905090810190601f16801561055f5780820380516001836020036101000a031916815260200191505b50965050505050505060405180910390a1505050565b60008054600181600116156101000203166002900480601f01602080910402602001604051908101604052809291908181526020018280546001816001161561010002031660029004801561060b5780601f106105e05761010080835404028352916020019161060b565b820191906000526020600020905b8154815290600101906020018083116105ee57829003601f168201915b505050505081565b6002602052806000526040600020600091509050806000015490806001018054600181600116156101000203166002900480601f0160208091040260200160405190810160405280929190818152602001828054600181600116156101000203166002900480156106c55780601f1061069a576101008083540402835291602001916106c5565b820191906000526020600020905b8154815290600101906020018083116106a857829003601f168201915b505050505090806002018054600181600116156101000203166002900480601f0160208091040260200160405190810160405280929190818152602001828054600181600116156101000203166002900480156107635780601f1061073857610100808354040283529160200191610763565b820191906000526020600020905b81548152906001019060200180831161074657829003601f168201915b5050505050908060030154905084565b60015481565b828054600181600116156101000203166002900490600052602060002090601f016020900481019282601f106107ba57805160ff19168380011785556107e8565b828001600101855582156107e8579182015b828111156107e75782518255916020019190600101906107cc565b5b5090506107f591906107f9565b5090565b61081b91905b808211156108175760008160009055506001016107ff565b5090565b9056fea165627a7a72305820db9a77370c6a613c825d1ac470feb1cd88f55030b94b7014ff941188ac1e77160029",
  "source": "pragma solidity ^0.5.0;\r\n\r\ncontract Ride {\r\n    string public DAPPname;\r\n    uint256 public driverNo = 0;\r\n\r\n    mapping(uint256 => Driver) public drivers;\r\n\r\n    struct Rider {\r\n        uint256 id;\r\n        string name;\r\n        uint256 age;\r\n        Route route;\r\n    }\r\n\r\n    struct Driver {\r\n        uint256 id;\r\n        string name;\r\n        string status;\r\n        uint256 seatSize;\r\n        mapping(uint256 => Route) routes;\r\n    }\r\n\r\n    struct Route {\r\n        uint256 id;\r\n        string origin;\r\n        string destination;\r\n        uint256 estimatedTimeDep;\r\n        uint256 estimatedTimeArr;\r\n    }\r\n\r\n    event DriverCreated(\r\n        uint256 id,\r\n        string name,\r\n        string status,\r\n        uint256 seatSize\r\n    );\r\n\r\n    constructor() public {\r\n        DAPPname = \"Ride Sharing DAPP\";\r\n    }\r\n\r\n    function driverLogin(\r\n        string memory _name,\r\n        string memory _status,\r\n        uint256 _seatSize\r\n    ) public {\r\n        //Increment Driver No.\r\n        driverNo++;\r\n        //Create a Driver\r\n        drivers[driverNo] = Driver({\r\n            id: driverNo,\r\n            name: _name,\r\n            status: _status,\r\n            seatSize: _seatSize\r\n        });\r\n\r\n        //Trigger an event\r\n        emit DriverCreated(driverNo, _name, _status, _seatSize);\r\n    }\r\n}\r\n",
  "sourcePath": "C:/Users/hbhar/Documents/Blockchain/Ride_Sharing/src/contracts/Ride.sol",
  "compiler": {
    "name": "solc",
    "version": "0.5.0+commit.1d4f565a.Emscripten.clang"
  },
  "schemaVersion": "3.0.1",
  "updatedAt": "2022-05-31T03:56:25.725Z",
  "devdoc": {
    "methods": {}
  },
  "userdoc": {
    "methods": {}
  }
}