{
  "contractName": "Ride",
  "abi": [
    {
      "constant": true,
      "inputs": [],
      "name": "rideNo",
      "outputs": [
        {
          "name": "",
          "type": "uint256"
        }
      ],
      "payable": false,
      "stateMutability": "view",
      "type": "function",
      "signature": "0x3e4ac33d"
    }
  ],
  "bytecode": "0x60806040526001600055348015601457600080fd5b50609e806100236000396000f3fe608060405260043610603f576000357c0100000000000000000000000000000000000000000000000000000000900463ffffffff1680633e4ac33d146044575b600080fd5b348015604f57600080fd5b506056606c565b6040518082815260200191505060405180910390f35b6000548156fea165627a7a72305820b39065f02266e186afe300482f0b05caff7e476ee05bdf1193ee0f742bed37d80029",
  "source": "pragma solidity ^0.5.0;\r\n\r\ncontract Ride {\r\n    uint256 public rideNo = 1;\r\n}\r\n",
  "sourcePath": "C:/Users/hbhar/Documents/Blockchain/Ride_Sharing/contracts/Ride.sol",
  "compiler": {
    "name": "solc",
    "version": "0.5.0+commit.1d4f565a.Emscripten.clang"
  },
  "schemaVersion": "3.0.1",
  "updatedAt": "2022-05-29T03:20:01.403Z",
  "devdoc": {
    "methods": {}
  },
  "userdoc": {
    "methods": {}
  }
}